:020000040800F2
:1000000000000220DD2F00084513000847130008F8
:10001000491300084B1300084D13000800000000AE
:100020000000000000000000000000004F13000866
:100030005113000800000000531300085513000876
:100040002D3000082D3000082D3000082D3000081C
:100050002D3000082D3000082D3000082D3000080C
:100060002D3000082D3000082D3000082D300008FC
:100070002D3000082D3000082D3000082D300008EC
:100080002D3000082D3000082D3000085D130008C9
:100090006D1300087D1300088D1300082D30000833
:1000A0002D3000082D3000082D3000082D300008BC
:1000B0002D3000082D3000082D3000082D300008AC
:1000C0002D3000082D3000082D3000082D3000089C
:1000D0002D3000082D3000082D3000082D3000088C
:1000E0002D3000082D3000082D3000082D3000087C
:1000F0002D3000082D3000082D3000082D3000086C
:100100002D3000082D3000082D3000082D3000085B
:100110002D3000082D3000082D3000082D3000084B
:100120002D3000082D3000082D3000082D3000083B
:100130002D30000800000000000000002D300008F5
:100140002D3000082D3000082D3000082D3000081B
:100150002D3000082D3000082D3000082D3000080B
:100160002D3000082D3000082D3000082D300008FB
:100170002D3000082D3000082D3000080000000050
:10018000000000002D30000800000000000000000A
:100190002D30000800000000000000002D30000895
:1001A0000000000000000000000000002D300008EA
:1001B0002D3000082D3000082D3000082D300008AB
:0401C0002D300008D6
:100200000348044B834202D0034B03B118477047A5
:100210000C0000200C0000200000000005480649EA
:100220000B1AD90F01EBA301491002D0034B03B104
:10023000184770470C0000200C0000200000000050
:1002400010B5064C237843B9FFF7DAFF044B13B11E
:100250000448AFF300800123237010BD0C00002080
:10026000000000003030000808B5044B1BB1044901
:100270000448AFF30080BDE80840CFE7000000006D
:10028000100000203030000870B50D4E0D4D761B6B
:10029000B61006D0002455F8043B01349847A64216
:1002A000F9D1094E094D761B02F0C2FEB61006D0F8
:1002B000002455F8043B01349847A642F9D170BD9B
:1002C00098300008983000089C30000898300008EA
:1002D000830730B548D0541E002A3FD0CAB2034627
:1002E00001E0013C3AD303F8012B9D07F9D1032C1F
:1002F0002DD9CDB245EA05250F2C45EA054536D95D
:10030000A4F1100222F00F0C03F1200EE6444FEA94
:10031000121C03F1100242E9045542E90255103261
:100320007245F8D10CF1010214F00C0F03EB02122C
:1003300004F00F0C13D0ACF1040323F003030433D7
:10034000134442F8045B9342FBD10CF003042CB13C
:10035000CAB21C4403F8012B9C42FBD130BD644659
:100360001346002CF4D1F9E703461446BFE71A46BA
:10037000A446E0E7000000000000000000000000CC
:1003800090F800F06DE9024520F007016FF0000CD5
:1003900010F0070491F820F040F049804FF000047D
:1003A0006FF00700D1E9002391F840F000F1080058
:1003B00082FA4CF2A4FA8CF283FA4CF3A2FA8CF390
:1003C0004BBBD1E9022382FA4CF200F10800A4FAF7
:1003D0008CF283FA4CF3A2FA8CF3E3B9D1E904234B
:1003E00082FA4CF200F10800A4FA8CF283FA4CF382
:1003F000A2FA8CF37BB9D1E9062301F1200182FA3C
:100400004CF200F10800A4FA8CF283FA4CF3A2FA41
:100410008CF3002BC6D0002A04BF04301A4612BA4F
:10042000B2FA82F2FDE8024500EBD2007047D1E952
:10043000002304F00305C4F100004FEAC50514F0E1
:10044000040F91F840F00CFA05F562EA05021CBFB2
:1004500063EA050362464FF00004A9E781F000411A
:1004600002E000BF83F0004330B54FEA41044FEA99
:10047000430594EA050F08BF90EA020F1FBF54EA34
:10048000000C55EA020C7FEA645C7FEA655C00F0D0
:10049000E2804FEA5454D4EB5555B8BF6D420CDDA1
:1004A0002C4480EA020281EA030382EA000083EA24
:1004B000010180EA020281EA0303362D88BF30BDC4
:1004C00011F0004F4FEA01314FF4801C4CEA11311A
:1004D00002D0404261EB410113F0004F4FEA033379
:1004E0004CEA133302D0524263EB430394EA050F04
:1004F00000F0A780A4F10104D5F1200E0DDB02FA73
:100500000EFC22FA05F2801841F1000103FA0EF206
:10051000801843FA05F359410EE0A5F120050EF1CC
:10052000200E012A03FA0EFC28BF4CF0020C43FAFD
:1005300005F3C01851EBE37101F0004507D54FF00A
:10054000000EDCF1000C7EEB00006EEB0101B1F55A
:10055000801F1BD3B1F5001F0CD349085FEA3000A0
:100560004FEA3C0C04F101044FEA445212F5800FAB
:1005700080F09A80BCF1004F08BF5FEA500C50F148
:10058000000041EB045141EA050130BD5FEA4C0C2B
:10059000404141EB0101013C28BFB1F5801FE9D288
:1005A00091F0000F04BF01460020B1FA81F308BFAB
:1005B0002033A3F10B03B3F120020CDA0C3208DD77
:1005C00002F1140CC2F10C0201FA0CF021FA02F152
:1005D0000CE002F11402D8BFC2F1200C01FA02F1C2
:1005E00020FA0CFCDCBF41EA0C019040E41AA2BFE7
:1005F00001EB0451294330BD6FEA04041F3C1CDAAF
:100600000C340EDC04F11404C4F1200220FA04F0CE
:1006100001FA02F340EA030021FA04F345EA030178
:1006200030BDC4F10C04C4F1200220FA02F001FA3A
:1006300004F340EA0300294630BD21FA04F02946BC
:1006400030BD94F0000F83F4801306BF81F4801155
:100650000134013D4EE77FEA645C18BF7FEA655CC8
:1006600029D094EA050F08BF90EA020F05D054EA9A
:10067000000C04BF1946104630BD91EA030F1EBF9F
:100680000021002030BD5FEA545C05D140004941A3
:1006900028BF41F0004130BD14F580043CBF01F596
:1006A000801130BD01F0004545F0FE4141F470017C
:1006B0004FF0000030BD7FEA645C1ABF1946104657
:1006C0007FEA655C1CBF0B46024650EA013406BF58
:1006D00052EA033591EA030F41F4002130BD00BF17
:1006E00090F0000F04BF0021704730B54FF48064D4
:1006F00004F132044FF000054FF0000150E700BF55
:1007000090F0000F04BF0021704730B54FF48064B3
:1007100004F1320410F0004548BF40424FF00001A0
:100720003EE700BF42004FEAE2014FEA31014FEAE3
:1007300002701FBF12F07F4393F07F4F81F0605132
:10074000704732F07F4208BF704793F07F4F04BF7D
:1007500041F40021704730B54FF4607401F000455A
:1007600021F000411CE700BF50EA010208BF7047BA
:1007700030B54FF000050AE050EA010208BF7047AB
:1007800030B511F0004502D5404261EB41014FF414
:10079000806404F132045FEA915C3FF4D8AE4FF01C
:1007A00003025FEADC0C18BF03325FEADC0C18BFFF
:1007B000033202EBDC02C2F1200300FA03FC20FA50
:1007C00002F001FA03FE40EA0E0021FA02F114449D
:1007D000BDE600BF70B54FF0FF0C4CF4E06C1CEAB6
:1007E00011541DBF1CEA135594EA0C0F95EA0C0F27
:1007F00000F0DEF82C4481EA030621EA4C5123EA9A
:100800004C5350EA013518BF52EA033541F48011C8
:1008100043F4801338D0A0FB02CE4FF00005E1FB7B
:1008200002E506F00042E0FB03E54FF00006E1FBC5
:1008300003569CF0000F18BF4EF0010EA4F1FF0408
:10084000B6F5007F64F5407404D25FEA4E0E6D4148
:1008500046EB060642EAC62141EA55514FEAC52059
:1008600040EA5E504FEACE2EB4F1FD0C88BFBCF5D5
:10087000E06F1ED8BEF1004F08BF5FEA500E50F186
:10088000000041EB045170BD06F0004646EA01014C
:1008900040EA020081EA0301B4EB5C04C2BFD4EB7E
:1008A0000C0541EA045170BD41F480114FF0000E77
:1008B000013C00F3AB8014F1360FDEBF002001F0E5
:1008C000004170BDC4F10004203C35DA0C341BDC5F
:1008D00004F11404C4F1200500FA05F320FA04F031
:1008E00001FA05F240EA020001F0004221F0004165
:1008F00010EBD37021FA04F642EB06015EEA430ED8
:1009000008BF20EAD37070BDC4F10C04C4F1200507
:1009100000FA04F320FA05F001FA04F240EA0200BA
:1009200001F0004110EBD37041F100015EEA430E8B
:1009300008BF20EAD37070BDC4F1200500FA05F2AB
:100940004EEA020E20FA04F301FA05F243EA02032A
:1009500021FA04F001F0004121FA04F220EA020039
:1009600000EBD3705EEA430E08BF20EAD37070BD7F
:1009700094F0000F0FD101F00046400041EB01015F
:1009800011F4801F08BF013CF7D041EA060195F041
:10099000000F18BF704703F00046520043EB0303FB
:1009A00013F4801F08BF013DF7D043EA06037047E8
:1009B00094EA0C0F0CEA135518BF95EA0C0F0CD0F3
:1009C00050EA410618BF52EA4306D1D181EA030139
:1009D00001F000414FF0000070BD50EA410606BF33
:1009E0001046194652EA430619D094EA0C0F02D178
:1009F00050EA013613D195EA0C0F05D152EA0336BD
:100A00001CBF104619460AD181EA030101F00041DA
:100A100041F0FE4141F470014FF0000070BD41F023
:100A2000FE4141F4780170BD70B54FF0FF0C4CF4FD
:100A3000E06C1CEA11541DBF1CEA135594EA0C0F1C
:100A400095EA0C0F00F0A7F8A4EB050481EA030E69
:100A500052EA03354FEA013100F088804FEA033350
:100A60004FF0805545EA131343EA12634FEA02221E
:100A700045EA111545EA10654FEA00260EF00041DF
:100A80009D4208BF964244F1FD0404F5407402D231
:100A90005B084FEA3202B61A65EB03055B084FEAC2
:100AA00032024FF480104FF4002CB6EB020E75EBBF
:100AB000030E22BFB61A754640EA0C005B084FEAE7
:100AC0003202B6EB020E75EB030E22BFB61A754664
:100AD00040EA5C005B084FEA3202B6EB020E75EBAF
:100AE000030E22BFB61A754640EA9C005B084FEA27
:100AF0003202B6EB020E75EB030E22BFB61A754634
:100B000040EADC0055EA060E18D04FEA051545EA22
:100B100016754FEA06164FEAC30343EA52734FEACB
:100B2000C2025FEA1C1CC0D111F4801F0BD141EA44
:100B300000014FF000004FF0004CB6E711F4801FA9
:100B400004BF01430020B4F1FD0C88BFBCF5E06F89
:100B50003FF6AFAEB5EB030C04BFB6EB020C5FEA99
:100B6000500C50F1000041EB045170BD0EF0004EEE
:100B70004EEA113114EB5C04C2BFD4EB0C0541EA20
:100B8000045170BD41F480114FF0000E013C90E61D
:100B900045EA060E8DE60CEA135594EA0C0F08BFE1
:100BA00095EA0C0F3FF43BAF94EA0C0F0AD150EAE0
:100BB00001347FF434AF95EA0C0F7FF425AF104673
:100BC00019462CE795EA0C0F06D152EA03353FF49B
:100BD000FDAE1046194622E750EA410618BF52EA18
:100BE00043067FF4C5AE50EA41047FF40DAF52EAEC
:100BF00043057FF4EBAE12E74FEA410212F5001213
:100C000015D211D56FF47873B3EB625212D94FEA53
:100C1000C12343F0004343EA505311F0004F23FA3D
:100C200002F018BF404270474FF00000704750EA92
:100C3000013005D111F0004008BF6FF0004070474F
:100C40004FF00000704700BF4A0011D212F50012A9
:100C500011D20DD56FF47873B3EB62520ED44FEA14
:100C6000C12343F0004343EA505323FA02F0704794
:100C70004FF00000704750EA013002D14FF0FF30D2
:100C800070474FF00000704753B94AB9002908BFB8
:100C900000281CBF4FF0FF314FF0FF3000F074B957
:100CA000ADF1080C6DE904CE00F006F8DDF804E0C3
:100CB000DDE9022304B070472DE9F047089D0446A2
:100CC0008E46002B4DD18A42944669D9B2FA82F2FF
:100CD00052B101FA02F3C2F1200120FA01F10CFA3B
:100CE00002FC41EA030E94404FEA1C48210CBEFB73
:100CF000F8F61FFA8CF708FB16E341EA034306FBFC
:100D000007F199420AD91CEB030306F1FF3080F08A
:100D10001F81994240F21C81023E63445B1AA4B2D7
:100D2000B3FBF8F008FB103344EA034400FB07F779
:100D3000A7420AD91CEB040400F1FF3380F00A81BA
:100D4000A74240F207816444023840EA0640E41BAF
:100D500000261DB1D4400023C5E900433146BDE85B
:100D6000F0878B4209D9002D00F0EF800026C5E9FD
:100D7000000130463146BDE8F087B3FA83F6002E15
:100D80004AD18B4202D3824200F2F980841A61EB8D
:100D9000030301209E46002DE0D0C5E9004EDDE7AB
:100DA00002B9FFDEB2FA82F2002A40F09280A1EB93
:100DB0000C014FEA1C471FFA8CFE0126200CB1FBE8
:100DC000F7F307FB131140EA01410EFB03F08842E1
:100DD00008D91CEB010103F1FF3802D2884200F26E
:100DE000CB804346091AA4B2B1FBF7F007FB101100
:100DF00044EA01440EFB00FEA64508D91CEB04049E
:100E000000F1FF3102D2A64500F2BB800846A4EBF8
:100E10000E0440EA03409CE7C6F12007B34022FAE3
:100E200007FC4CEA030C20FA07F401FA06F31C4312
:100E3000F9404FEA1C4900FA06F3B1FBF9F8200C1F
:100E40001FFA8CFE09FB181140EA014108FB0EF065
:100E5000884202FA06F20BD91CEB010108F1FF3AB5
:100E600080F08880884240F28580A8F102086144C1
:100E7000091AA4B2B1FBF9F009FB101144EA0141CF
:100E800000FB0EFE8E4508D91CEB010100F1FF347A
:100E90006CD28E456AD90238614440EA0840A0FB12
:100EA0000294A1EB0E01A142C846A64656D353D0E8
:100EB0005DB1B3EB080261EB0E0101FA07F722FA0C
:100EC00006F3F1401F43C5E9007100263146BDE835
:100ED000F087C2F12003D8400CFA02FC21FA03F398
:100EE000914001434FEA1C471FFA8CFEB3FBF7F019
:100EF00007FB10360B0C43EA064300FB0EF69E423E
:100F000004FA02F408D91CEB030300F1FF382FD2D6
:100F10009E422DD9023863449B1B89B2B3FBF7F67E
:100F200007FB163341EA034106FB0EF38B4208D957
:100F30001CEB010106F1FF3816D28B4214D9023E98
:100F40006144C91A46EA004638E72E46284605E7B6
:100F50000646E3E61846F8E64B45A9D2B9EB020887
:100F600064EB0C0E0138A3E74646EAE7204694E717
:100F70004046D1E7D0467BE7023B614432E730464A
:100F800009E76444023842E7704700BF032A3CD9AE
:100F90000B7803F0010303700B78C3F34003437035
:100FA0000B78C3F3800383700B78C3F3C003C37063
:100FB0000B78C3F3001303710B78C3F34013437131
:100FC0000B78C3F3801383710B78DB09C3714B7803
:100FD00003F0010303724B78C3F3400343724B7871
:100FE000C3F3800383724B78C3F3C003C3724B789F
:100FF000C3F3001303734B78C3F3401343734B786D
:10100000C3F380138373002070476FF0150070479F
:1010100008B5FFF765FB41EC100B08BD08B5FFF7FD
:101020005FFB41EC100B08BD012A11D90B78C3F30B
:10103000801303700B7803F0010343704B78C3F304
:10104000801383704B7803F00103C3700020704756
:101050006FF01500704708B5FFF742FB41EC100B2D
:1010600008BD072A17D90023036043600B881B0AB9
:1010700003700B7843704B881B0A83708B78C370A6
:101080008B881B0A03710B7943718B798371CB7940
:10109000C371082070476FF015007047034618B100
:1010A00000201860586070474FF0FF307047000014
:1010B00008B551EC100B04A3D3E90023FFF7B4FCEF
:1010C000FFF7C2FD80B208BD2D431CEBE2361A3F8C
:1010D00008B551EC100B04A3D3E90023FFF7A4FCDF
:1010E000FFF7B2FD80B208BD2D431CEBE2361A3F7C
:1010F00008B551EC100B04A3D3E90023FFF794FCCF
:10110000FFF7A2FD80B208BD2D431CEBE2361A3F6B
:1011100008B551EC100BFFF797FDC0B208BD08B53C
:1011200051EC100BFFF790FDC0B208BD072A18D98B
:101130000023036043600B681A0E0270C3F307427A
:101140004270C3F307228270C3704B681A0E02719B
:10115000C3F307424271C3F307228271C3710820AF
:1011600070476FF015007047034618B100201860F3
:10117000586070474FF0FF307047000000000000DB
:1011800008B551EC100B0022074BFFF76BF904A3D5
:10119000D3E90023FFF748FCFFF72EFD08BD00BF91
:1011A0007B14AE47E17AA43F00004940072A17D9D3
:1011B0000023036043600B881B0A03700B784370A5
:1011C0004B881B0A83708B78C3708B881B0A037152
:1011D0000B7943718B798371CB79C3710820704788
:1011E0006FF015007047034640B10020186058604A
:1011F00045F677321A805A809A8070474FF0FF3058
:10120000704700000000000008B551EC100B08A367
:10121000D3E90023FFF728F907A3D3E90023FFF759
:1012200003FCFFF711FD80B208BD00BFAFF30080E3
:1012300066666666661271407B14AE47E17A843F4B
:1012400072B6FEE700B595B03422002107A8FFF77B
:101250003FF80023029303930493059306930093AE
:10126000234A116C41F080511164126C02F08052DB
:101270000092009A01931F4B1A6842F440421A6090
:101280001B6803F440430193019B012307934FF430
:101290008033089302230D934FF480020E920422B0
:1012A0000F92B421109111921293139307A800F09A
:1012B00021FEB0B901F032F9A8B90F23029303233C
:1012C0000393002304934FF4A05305934FF48053EA
:1012D0000693052102A800F077FC30B915B05DF83F
:1012E00004FBFFF7ADFFFFF7ABFFFFF7A9FF00BF60
:1012F000003802400070004010B501F0DFF9FFF740
:10130000A1FF01F0A3FB01F007FC01F015FE01F0C5
:10131000FBF900F10A0401F0F7F9A04209D2084BE9
:101320001B78002BF7D0064B00221A7001F0DEFD6F
:10133000F1E701F0E9F900F10A0401F077FDEEE7C9
:1013400032000020FEE7FEE7FEE7FEE7FEE770471B
:101350007047704708B501F0CBF908BD08B50248E1
:1013600000F00DFB08BD00BF3400002008B50248A6
:1013700000F005FB08BD00BF3400002008B502489E
:1013800000F0FDFA08BD00BF3400002008B5024897
:1013900000F0F5FA08BD00BF3400002000B583B0AE
:1013A000002100910C4B5A6C42F480425A645A6CF2
:1013B00002F480420092009A01911A6C42F080522D
:1013C0001A641B6C03F080530193019B072001F00A
:1013D000E3F803B05DF804FB00380240002800F099
:1013E000A18038B5044690F82030D3B12268136844
:1013F00043F00103136001F087F9054623685A683A
:1014000012F0010F10D101F07FF9401B0A28F5D925
:10141000636A43F400336362052384F820300120BB
:1014200038BD01F0F5FBE1E71A6822F002021A600C
:1014300001F06AF9054623685A6812F0020F0DD0D0
:1014400001F062F9401B0A28F5D9636A43F40033BE
:101450006362052384F820300120E1E7227E012A1F
:101460003DD01A6822F080021A60637E012B3BD0C7
:101470002268136823F040031360A37E012B39D048
:101480002268136823F020031360E37E012B37D01A
:101490002268136843F010031360237F012B35D0BB
:1014A0002268136823F008031360637F012B33D095
:1014B0002268136823F004031360A368E2681343EF
:1014C00022691343626913436268013A2168134336
:1014D000CB6100206062012384F82030A0E71A6805
:1014E00042F080021A60C0E72268136843F04003AC
:1014F0001360C2E72268136843F020031360C4E757
:101500002268136823F010031360C6E7226813688B
:1015100043F008031360C8E72268136843F004032C
:101520001360CAE70120704790F82030013BDBB21E
:10153000012B05D9436A43F480234362012070479D
:1015400030B5464BD3F8002242F00102C3F8002226
:10155000D3F8002222F47C52C3F80022D3F80022F0
:10156000486A42EA0022C3F800224A6902F01F02D8
:10157000012000FA02F2D3F81C026FEA020C20EA02
:101580000200C3F81C02CB69C3B9344BD3F80C0278
:101590000CEA0000C3F80C028C884869CD6844EA64
:1015A0000544483043F830408C68088840EA0440DD
:1015B0004C6904F1480E03EBCE035860CB69012B54
:1015C0001ED08B69002B33D12448D0F804320CEAAA
:1015D0000303C0F804320B698BBB2048D0F81432E7
:1015E0000CEA0303C0F814320B6A012B2ED01B4AFD
:1015F000D2F8003223F00103C2F80032002030BDDF
:10160000164BD3F80C021043C3F80C028C884869BF
:101610000D6844EA0544483043F8304088894C69F5
:101620008D6840EA0540483403EBC4035860C8E7BE
:101630000A48D0F804321343C0F80432CBE7074815
:10164000D0F814321343C0F81432CDE70349D1F86F
:101650001C321A43C1F81C22C9E700BF00640040D5
:1016600070B5044690F82050EDB2012D06D0436AC3
:1016700043F4002343620125284670BD022380F80D
:1016800020300268136823F00103136001F03CF876
:10169000064623685B6813F0010F0CD001F034F8A4
:1016A000831B0A2BF5D9636A43F400336362052375
:1016B00084F82030E0E700256562DDE730B590F87A
:1016C00020C00468A4680CF1FF3C5FFA8CFCBCF1FC
:1016D000010F62D814F0E05F59D0C4F3016C01240B
:1016E00004FA0CF41C608B68002B3DD10D68CB68AC
:1016F000046843EA45550CF118031B01E5500368E3
:101700000C690CF1180E03EB0E135C600B7D012BC2
:1017100035D0D17993791B0443EA0163517943EAC7
:10172000012314790168234301EB0C11C1F88C31BA
:10173000D17893781B0443EA0163517843EA01238B
:10174000117802680B4302EB0C12C2F88831026870
:101750000CF1180C4FEA0C1C52F80C3043F001034A
:1017600042F80C3000201DE04C6843EAC403CC680A
:1017700023430CF11804240105682B51BFE70368CB
:1017800003EB0E13596841F480715960C1E7436A55
:1017900043F400134362012004E0436A43F48023CE
:1017A0004362012030BD90F82030013BDBB2012BB9
:1017B00001D9002070470368986810F0806000D05D
:1017C00001209A6812F0006F00D001309B6813F07E
:1017D000805FEFD00130704790F820C00CF1FF3CE3
:1017E0005FFA8CFCBCF1010F00F2A58030B451B956
:1017F0000468E46814F0030F10D1436A43F4001343
:10180000436201207EE00468246914F0030F05D1CF
:10181000436A43F400134362012073E0056801F159
:101820001B0424012C5904F004049460002C6BD197
:10183000056801F11B0424012C59640D146004682F
:1018400001F11B0C4FEA0C1C54F80C4004F002048C
:10185000D4600468A444DCF8045015F0080F5BD091
:1018600008241461056801F11B0C05EB0C156D686B
:10187000C5F307259561046804EB0C146468240C17
:101880005461026802EB0112D2F8B8211A700268A2
:1018900002EB0112D2F8B821C2F307225A70026893
:1018A00002EB0112D2F8B821C2F307429A70026823
:1018B00002EB0112D2F8B821120EDA70026802EBC4
:1018C0000112D2F8BC211A71026802EB0112D2F89F
:1018D000BC21C2F307225A71026802EB0112D2F84E
:1018E000BC21C2F307429A71026802EB0112D2F8DE
:1018F000BC21120EDA71C1B90268D36843F020032B
:10190000D360002030BC7047056801F11B0424013E
:101910002C59E408546092E701F11B0504EB05140F
:10192000646804F00F0414619CE70268136943F0D3
:1019300020031361E5E7436A43F4802343620120F7
:10194000704790F82030013BDBB2012B05D9436A88
:1019500043F48023436201207047026853691943AE
:10196000516100207047704770477047704770475B
:1019700070477047704770477047704770472DE950
:10198000F84F054603685C69D3F804809F68D3F874
:101990000CB0D3F810A0D3F8189014F001063BD087
:1019A00017F0010616D001229A6017F0020F08D135
:1019B00017F0040F0CD117F0080606D04FF480562C
:1019C00008E0FFF7D0FF002604E0FFF7CFFF01E0BB
:1019D0004FF4006617F4807F0DD02B684FF48072AF
:1019E0009A6017F4007F40F0868017F4806F00F053
:1019F000868046F4005617F4803F0DD02B684FF4D4
:101A000080329A6017F4003F40F0838017F4802FF3
:101A100000F0838046F4004614F0080F07D01BF056
:101A2000100F04D046F400762B681022DA6014F010
:101A3000040F02D01BF0080F79D114F0020F04D06C
:101A40002B68DB6813F0030F78D114F0400F07D038
:101A50001AF0100F04D046F480662B6810221A6129
:101A600014F0200F02D01AF0080F6BD114F0100FF1
:101A700004D02B681B6913F0030F6AD114F4003FE4
:101A800002D018F0100F68D114F4803F02D018F083
:101A9000080F69D114F4004F7AD018F0040F74D0F5
:101AA00014F4807F04D019F0010F01D046F0010634
:101AB00014F4007F04D019F0020F01D046F00206A2
:101AC00014F4806F04D019F0040F01D046F004061E
:101AD00014F4006F59D019F0700956D0B9F1400FC5
:101AE00065D058D8B9F1200F5ED0B9F1300F42D18E
:101AF00046F0200644E02846FFF736FF7BE717F460
:101B0000006F02D046F4804675E72846FFF72FFFA6
:101B100071E72846FFF729FF7EE717F4002F02D070
:101B200046F4803678E72846FFF722FF74E72B68F3
:101B30000822DA602846FFF71CFF7EE7284601F0FE
:101B400083F982E72B6808221A612846FFF713FF02
:101B50008CE72846FFF70EFF90E72B6810225A60AB
:101B60002846FFF709FF8FE72B6808225A602846AE
:101B7000FFF703FF8EE7B9F1100F01D146F0080619
:101B80002A68936923F0700393612B6804225A60DA
:101B90009EB9BDE8F88FB9F1500F0BD0B9F1600FC5
:101BA000EED146F48076EBE746F01006E8E746F023
:101BB0004006E5E746F08006E2E76B6A1E436E6288
:101BC0002846FFF7DBFEE4E7002800F09B8070B5B5
:101BD0000D4604464F4B1B6803F00F038B4208D29F
:101BE000CBB24C4A1370136803F00F038B4240F0E2
:101BF0008B80236813F0020F17D013F0040F04D06A
:101C0000454A936843F4E0539360236813F0080F48
:101C100004D0414A936843F4604393603E4A93681A
:101C200023F0F003A1680B439360236813F0010FC6
:101C300032D06368012B21D09A1E012A25D9364A59
:101C4000126812F0020F61D033498A6822F0030251
:101C500013438B6000F058FD06462F4B9B6803F042
:101C60000C036268B3EB820F16D000F04DFD801BB1
:101C700041F288339842F0D9032042E0264A1268A4
:101C800012F4003FE0D101203BE0234A126812F039
:101C9000007FD9D1012034E01E4B1B6803F00F03F5
:101CA000AB4207D9EAB21B4B1A701B6803F00F0353
:101CB000AB422DD1236813F0040F06D0164A936867
:101CC00023F4E053E1680B439360236813F0080F9B
:101CD00007D0114A936823F46043216943EAC103A2
:101CE000936000F047F80C4B9B68C3F303130B4A57
:101CF000D35CD8400A4B18600A4B186800F0B8FC57
:101D0000002070BD012070470120FAE70120F8E7AC
:101D10000120F6E7003C024000380240483000084D
:101D20000800002004000020014B1868704700BF25
:101D30000800002008B5FFF7F7FF044B9B68C3F3CA
:101D40008223034AD35CD84008BD00BF003802405C
:101D50005830000808B5FFF7E7FF044B9B68C3F352
:101D60004233034AD35CD84008BD00BF003802406C
:101D70005830000808B55C4B9B6803F00C03082B37
:101D800007D00C2B5BD0042B01D0584808BD584815
:101D9000FCE7554B5A6802F03F025B6813F4800F72
:101DA0002AD0514B5968C1F3881C4FEA4C11B1EB52
:101DB0000C006EEB0E0E4FEA8E1343EA9063810126
:101DC000091A63EB0E03DB0043EA5173C90011EB00
:101DD0000C0C43F10003590200234FEA4C2041EA66
:101DE000DC51FEF751FF404B5B68C3F30143013305
:101DF0005B00B0FBF3F0C9E73B4B5968C1F3881CAB
:101E00004FEA4C11B1EB0C006EEB0E0E4FEA8E1345
:101E100043EA90638101091A63EB0E03DB0043EA96
:101E20005173C90011EB0C0C43F10003990200231C
:101E30004FEA8C2041EA9C51FEF726FFD3E72A4B5C
:101E40005A6802F03F025B6813F4800F28D0264BDB
:101E50005968C1F3881C4FEA4C11B1EB0C006EEBD2
:101E60000E0E4FEA8E1343EA90638101091A63EB69
:101E70000E03DB0043EA5173C90011EB0C0C43F174
:101E80000003590200234FEA4C2041EADC51FEF7DF
:101E9000FBFE154B5B68C3F30273B0FBF3F075E711
:101EA000114B5968C1F3881C4FEA4C11B1EB0C007F
:101EB0006EEB0E0E4FEA8E1343EA90638101091A0E
:101EC00063EB0E03DB0043EA5173C90011EB0C0C0A
:101ED00043F10003990200234FEA8C2041EA9C5110
:101EE000FEF7D2FED5E700BF003802400024F40020
:101EF00000127A00002800F0018270B582B004461A
:101F0000036813F0010F41D0994B9B6803F00C0359
:101F1000042B32D0964B9B6803F00C03082B27D080
:101F2000934B9B6803F00C030C2B59D06368B3F5FB
:101F3000803F5BD0B3F5A02F5ED08D4B1A6822F4A2
:101F400080321A601A6822F480221A606368002BBB
:101F50005CD000F0D9FB0546854B1B6813F4003FAD
:101F600014D100F0D1FB401B6428F5D90320CCE14B
:101F70007F4B5B6813F4800FD2D07D4B1B6813F44A
:101F8000003F03D06368002B00F0BA81236813F090
:101F9000020F60D0764B9B6813F00C0F4AD0744B45
:101FA0009B6803F00C03082B3FD0714B9B6803F038
:101FB0000C030C2B69D0E368002B75D06D4B01220C
:101FC0001A6000F0A1FB0546694B1B6813F0020F75
:101FD00061D100F099FB401B0228F5D9032094E160
:101FE000634B5B6813F4800FA0D0C6E7604A1368A8
:101FF00043F480331360A9E75D4B1A6842F48022F2
:102000001A601A6842F480321A609FE700F07CFB85
:102010000546574B1B6813F4003FB7D000F074FB24
:10202000401B6428F5D903206FE1514B5B6813F422
:10203000800FBAD14E4B1B6813F0020F03D0E36838
:10204000012B40F05F814A4A136823F0F8032169AD
:1020500043EAC1031360236813F0080F49D0636992
:10206000002B33D0434B0122C3F8802E00F04CFBF1
:1020700005463F4B5B6F13F0020F3AD100F044FB73
:10208000401B0228F5D903203FE1394B5B6813F46C
:10209000800F90D1CEE7364A136823F0F803216908
:1020A00043EAC1031360D6E7324B00221A6000F006
:1020B0002BFB05462E4B1B6813F0020FCBD000F014
:1020C00023FB401B0228F5D903201EE1294B0022E7
:1020D000C3F8802E00F018FB0546254B5B6F13F00C
:1020E000020F06D000F010FB401B0228F5D9032098
:1020F0000BE1236813F0040F76D01D4B1B6C13F01B
:10210000805F33D100230193194B1A6C42F0805247
:102110001A641B6C03F080530193019B0125164B3D
:102120001B6813F4807F29D0A368012B3AD0052BBC
:102130003ED00F4B1A6F22F001021A671A6F22F07D
:1021400004021A67A368002B3CD000F0DDFA0646B3
:10215000074B1B6F13F0020F45D100F0D5FA801B1F
:1021600041F288339842F3D90320CEE00025D6E728
:102170000038024000004742007000406B4A13687C
:1021800043F48073136000F0BFFA0646674B1B6888
:1021900013F4807FC8D100F0B7FA801B0228F5D96C
:1021A0000320B2E0624A136F43F001031367C9E7EB
:1021B0005F4B1A6F42F004021A671A6F42F0010275
:1021C0001A67BFE700F0A0FA0646594B1B6F13F0E1
:1021D000020F08D000F098FA801B41F28833984231
:1021E000F3D9032091E0EDB9A369002B00F08C80B6
:1021F0004F4A926802F00C02082A54D0022B17D0E2
:102200004C4B00221A6600F07FFA0446484B1B68CC
:1022100013F0007F45D000F077FA001B0228F5D9B3
:10222000032072E0424A136C23F080531364DBE70F
:10223000404B00221A6600F067FA05463C4B1B68CB
:1022400013F0007F06D000F05FFA401B0228F5D99A
:1022500003205AE0E369226A1343626A43EA821365
:10226000A26A5208013A43EA0243E26A43EA02637D
:10227000226B43EA02732E4A53602E4B01221A66E8
:1022800000F042FA04462A4B1B6813F0007F06D187
:1022900000F03AFA001B0228F5D9032035E00020AF
:1022A00033E0002031E0012B31D0214B5B6803F497
:1022B0008001E26991422CD103F03F02216A8A42F7
:1022C00029D1616A47F6C0721A40B2EB811F24D14E
:1022D00003F44031A26A5208013AB1EB024F1ED119
:1022E00003F07062E16AB2EB016F1AD103F0E043D0
:1022F000226BB3EB027F16D1002006E0012070476D
:10230000012002E0012000E0002002B070BD0120A9
:10231000FBE70120F9E70120F7E70120F5E70120BD
:10232000F3E70120F1E70120EFE700BF0070004074
:10233000003802400000474200230F2B00F2DE80ED
:1023400070B582B060E085685E000324B44025EA81
:102350000405CC68B4402C438460456825EA020536
:102360004C68C4F300129A402A4342605AE0DC08E9
:10237000083450F8246003F0070295000F22AA40A9
:1023800026EA020E0A69AA4042EA0E0240F8242018
:102390005CE0062200E0002202FA0EF22A43023438
:1023A000574D45F82420574A94686FEA0C0224EAF6
:1023B0000C054E6816F4801F01D04CEA0405514C00
:1023C000A560E46802EA04054E6816F4001F01D017
:1023D0004CEA04054B4CE560646802EA04054E686B
:1023E00016F4003F01D04CEA0405464C65602468B1
:1023F00022404D6815F4803F01D04CEA0402414C64
:10240000226001330F2B77D801229A400C6804EA2E
:10241000020C32EA0404F4D14C6804F00304013CD9
:10242000012C90D94A6802F00302032A09D0C4683B
:102430005D000322AA4024EA02048A68AA402243DB
:10244000C2604A6802F00302022A90D004684FEA90
:10245000430E032202FA0EF224EA02044A6802F052
:10246000030202FA0EF2224302604A6812F4403F6D
:10247000C7D000220192244A546C44F4804454642E
:10248000526C02F480420192019A9C08A51C1C4ADD
:1024900052F8255003F003024FEA820E0F2202FA8F
:1024A0000EF225EA0205194A90423FF474AF02F594
:1024B0008062904216D002F58062904214D002F5FC
:1024C0008062904212D002F58062904210D002F5F4
:1024D000806290420ED002F5806290423FF459AF84
:1024E000072259E7012257E7022255E7032253E763
:1024F000042251E705224FE702B070BD704700BFCC
:1025000000380140003C0140003802400000024019
:102510000AB18161704709048161704710B582B0CA
:1025200000230193194B1A6C42F080521A641B6C01
:1025300003F080530193019B154B01221A6400F0B4
:10254000E3F80446134B5B6813F4803F08D100F0B6
:10255000DBF8001BB0F57A7FF4D9032002B010BD80
:102560000B4B01225A6400F0CFF80446094B5B681C
:1025700013F4003F07D100F0C7F8001BB0F57A7FD5
:10258000F4D90320EAE70020E8E700BF0038024062
:1025900000000E4200700040074AD36823F4E06355
:1025A0001B041B0C000200F4E060034343F0BF6314
:1025B00043F40033D360704700ED00E000B5194BE1
:1025C000DB68C3F30223C3F1070CBCF1040F28BF7F
:1025D0004FF0040C03F1040EBEF1060F18D9033BB3
:1025E0004FF0FF3E0EFA0CFC21EA0C0199400EFA66
:1025F00003F322EA0303194300280BDB0901C9B2E4
:1026000000F1604000F5614080F800135DF804FBC4
:102610000023E5E700F00F000901C9B2024B19548D
:10262000F4E700BF00ED00E014ED00E0002807DB58
:1026300000F01F02400901239340024A42F8203073
:10264000704700BF00E100E00138B0F1807F0BD29D
:102650004FF0E0235861054AF02182F82310002052
:10266000986107221A6170470120704700ED00E071
:1026700010B504460E4B18784FF47A73B3FBF0F3A1
:102680000C4A1068B0FBF3F0FFF7DEFF68B90F2CBF
:1026900001D901200AE0002221464FF0FF30FFF768
:1026A0008DFF054B1C60002000E0012010BD00BF25
:1026B00000000020080000200400002008B50B4B9B
:1026C0001A6842F400721A601A6842F480621A6052
:1026D0001A6842F480721A600320FFF75DFF002041
:1026E000FFF7C6FFFEF75AFE002008BD003C02407F
:1026F000034A1168034B1B780B441360704700BFFB
:102700002C00002000000020014B1868704700BF1B
:102710002C000020026802F10C0353E8003F23F470
:1027200090730C3242E800310029F3D1026802F1C3
:10273000140353E8003F23F00103143242E8003150
:102740000029F3D1036B012B05D0202380F8423000
:10275000002303637047026802F10C0353E8003F53
:1027600023F010030C3242E800310029F3D1ECE7EA
:1027700038B504460268136923F44053C1680B431B
:10278000136183680269134342691343C2691A43A0
:102790000168CB6823F4164323F00C031343CB608A
:1027A0000268536923F4407381690B4353610368E2
:1027B000314A934206D002F58062934202D0FFF77D
:1027C000B9FA01E0FFF7C6FAE369B3F5004F29D083
:1027D0000021031849411B1841F10001C90041EAD9
:1027E0005371DB00181863684FEA83024FEA937352
:1027F00041F10001FEF748FA204DA5FB00325109D6
:10280000642303FB11031B013233A5FB03235B0984
:1028100003F0F00202EB011203F00F0321681344EE
:102820008B6038BD0023021843EB0301121841F1FD
:102830000001C90041EA5271D200101841F10001B3
:10284000626892185B41FEF71FFA0C4DA5FB00323F
:102850005109642303FB1103DB003233A5FB03237F
:102860005B095A0002F4F87202EB011203F007034D
:10287000216813448B60D4E7001001401F85EB51A1
:102880002DE9F04383B005460E4617469946DDF81C
:1028900028802C68246836EA04030CBF4FF0010C32
:1028A0004FF0000CBC4528D1B8F1FF3FF1D0FFF745
:1028B0002BFFA0EB0900404523D8B8F1000F22D030
:1028C0002B68DA6812F0040FE3D0802EE1D0402E9E
:1028D000DFD01A6812F0080FDBD0002401941A68C8
:1028E00001925B680193019B2846FFF713FF0823C1
:1028F0006B6485F84040012000E0002003B0BDE893
:10290000F0830320FAE70320F8E760B310B504462C
:1029100090F8413013B3242384F841302268D368FF
:1029200023F40053D3602046FFF722FF2268136987
:1029300023F4904313612268536923F02A035361FF
:102940002268D36843F40053D360002060642023DE
:1029500084F8413084F84230606310BD80F8403024
:1029600000F004FBD7E7012070472DE9F04182B069
:102970001E4690F84130DBB2202B56D104460D465E
:102980009046002955D00AB901204FE00023436446
:10299000212380F84130FFF7B7FE0746A4F82480D2
:1029A000A4F82680A368B3F5805F02D04FF000083A
:1029B00014E023692BB34FF000080FE0202384F8C4
:1029C0004130032032E038F8023B2268C3F30803A9
:1029D0005360E28C92B2013A92B2E284E38C9BB2F1
:1029E00093B100963B46002280212046FFF748FF26
:1029F0000028E3D1002DE6D015F8012B23685A609A
:102A0000E7E7A8460025E9E700963B46002240217B
:102A10002046FFF735FF18B9202384F8413005E040
:102A2000202384F84130032000E0022002B0BDE8FA
:102A3000F0810120FAE70000034AD2F8883043F41D
:102A40007003C2F88830704700ED00E0F0B58BB03D
:102A500000240594069407940894099401942A4B41
:102A60001A6B42F004021A631A6B02F0040201921C
:102A7000019A02941A6B42F080021A631A6B02F0F8
:102A800080020292029A03941A6B42F001021A63C6
:102A90001A6B02F001020392039A04941A6B42F03B
:102AA00002021A631B6B03F002030493049B174F8B
:102AB000224620213846FFF72BFD154D22460721DF
:102AC0002846FFF725FD4FF4005305934FF40413F8
:102AD0000693079405A90F48FFF72EFC20230593C2
:102AE000012606960794089405A93846FFF724FCAA
:102AF0000723059306960794089405A92846FFF72F
:102B00001BFC0BB0F0BD00BF0038024000000240CB
:102B1000000402400008024070B59CB03648374BB4
:102B200003600323436000238360C3604FF43022BB
:102B300002614FF480124261037643768376C37656
:102B400003774377FEF74AFC00282CD101251A951C
:102B50000024179416944FF428531293139414944A
:102B6000159418951995244E12A93046FEF7DCFCF1
:102B700010950D950C944FF40263089309940A94F0
:102B80000B940E950F9508A93046FEF7CDFC48F63C
:102B900013713046FEF7D5FE40B91748FEF760FDC9
:102BA000B0B91CB070BDFEF74BFBCFE701AC144DC4
:102BB0000FCD0FC495E8070003C4228001A8FDF7DC
:102BC000DFFB0A2382B201A90E48FFF7CEFEE4E73D
:102BD00001AC0D4D0FCD0FC42B68236001A8FDF78C
:102BE000CFFB0A2382B201A90648FFF7BEFE074BBE
:102BF00002221A70D5E700BF3400002000640040B4
:102C000060300008600000207C30000828000020B0
:102C100010B588B00023039304930593069307939C
:102C20000268254B9A4201D008B010BD00240194DF
:102C300003F5EA331A6C42F000721A641A6C02F05F
:102C400000720192019A02941A6B42F001021A6317
:102C50001B6B03F001030293029B4FF4C0530393D9
:102C600002230493032306930923079303A913481C
:102C7000FFF762FB224621461320FFF79FFC13203B
:102C8000FFF7D4FC224621461420FFF797FC1420BE
:102C9000FFF7CCFC224621461520FFF78FFC1520BC
:102CA000FFF7C4FC224621461620FFF787FC1620BA
:102CB000FFF7BCFCB8E700BF006400400000024022
:102CC00070B504460E46FFF71FFD05462046FEF789
:102CD0006AFD30B9FFF718FD431BB342F6D9032054
:102CE00000E0002070BD70B584B004460E46154665
:102CF00001930121FFF7E4FF60B901AB3246294699
:102D00002046FEF7DBFC8DF80F009DF80F00C0B2E7
:102D100004B070BD0320FBE700B58BB0002308931F
:102D200009930293039304930593069307930290E8
:102D300040F20723984248D0B0F5027F34D040F2E9
:102D4000062398422DD16846FEF7A8F99FED280B7F
:102D5000FEF7DEF98DF806009FED270BFEF7DFF991
:102D60008DF807009FED260BFEF7A2F9ADF80000E5
:102D70009FED250BFEF7BCF9ADF804009FED240B89
:102D8000FEF7A6F9ADF802000822694608A8FEF78A
:102D900068F908230693012302AA08A92248FFF72D
:102DA000A2FF0BB05DF804FB6846FEF71CFA9FED2E
:102DB0001A0BFEF729FAADF800000822694608A8A8
:102DC000FEF7F4F908230693E5E76846FEF7CCF929
:102DD0009FED130BFEF7D4F901900822694608A86D
:102DE000FEF7A4F908230693D5E700BFAFF30080F0
:102DF000000000000000384000000000008051404A
:102E000066666666666612409A999999999909402C
:102E10003333333333330B400000000000004640AF
:102E200000000000000000003400002008B540F25F
:102E30000620FFF771FF40F20720FFF76DFF4FF408
:102E40000270FFF769FF08BD0268234B9A4200D069
:102E5000704700B58FB005AB07AA0021FEF7BCFC98
:102E600028B9079B412B05D0B3F5A87F20D00FB020
:102E70005DF804FB042205A90DEB0200FEF786F8BD
:102E80009DF80A00FEF7C4F851EC100BFDF7DCFECC
:102E9000124B18709DF80B00FEF7C0F851EC100BA8
:102EA000FDF7D2FE0E4B18700E4B01221A70DEE7B2
:102EB000022205A901A8FEF7B7F89DF80500FEF764
:102EC000CAF851EC100BFDF7BFFE074B1870054B0D
:102ED00001221A70CBE700BF0064004031000020DF
:102EE0005C000020320000203000002010B50E4BA6
:102EF0001A780E4CB2FA82F2520904212046FFF7EA
:102F000007FB0B4B1A78B2FA82F2520902212046D3
:102F1000FFF7FEFA074B1A78B2FA82F25209012142
:102F20002046FFF7F5FA10BD3100002000040240F2
:102F30005C0000203000002008B50A480A4B0360FE
:102F40004FF4E133436000238360C36003610C22CC
:102F500042618361C361FFF7D8FC00B908BDFEF789
:102F60006FF9FBE7600000200044004000B589B025
:102F70000023039304930593069307930268154B6C
:102F80009A4202D009B05DF804FB0021019103F5DB
:102F9000FA331A6C42F400321A641A6C02F40032EA
:102FA0000192019A02911A6B42F001021A631B6BA3
:102FB00003F001030293029B0C2303930223049367
:102FC000032306930723079303A90348FFF7B4F9E4
:102FD000D8E700BF0044004000000240DFF834D0D2
:102FE000FFF72AFD0C480D490D4A002302E0D45892
:102FF000C4500433C4188C42F9D30A4A0A4C002343
:1030000001E013600432A242FBD3FDF73DF9FEF765
:1030100073F9704700000220000000200C0000201F
:10302000A03000080C000020A8000020FEE70000EF
:10303000F8B500BFF8BC08BC9E467047F8B500BFA5
:08304000F8BC08BC9E46704775
:103048000000000000000000010203040607080950
:1030580000000000010203044572726F726520616E
:1030680074746976617A696F6E652063616E310D7B
:103078000A0000004572726F726520617676696F8A
:083088002043414E310D0A0006
:0830900028DCFF7F01000000B5
:0430980069020008C1
:04309C0041020008E5
:0C30A00001000000100000000024F400FB
:0400000508002FDDE3
:00000001FF
